:020000040800F2
:10000000C052002019030008BD630008015F00080A
:10001000B96300085521000875730008000000004E
:10002000000000000000000000000000E164000883
:100030001D25000800000000316400081565000857
:1000400033030008330300083303000833030008B8
:1000500033030008330300083303000833030008A8
:100060003303000833030008330300083303000898
:100070004523000833030008330300083303000856
:100080003303000833030008330300086921000824
:100090005921000833030008330300083303000824
:1000A0003303000821660008330300083303000807
:1000B00033030008330300083166000833030008E7
:1000C0003303000833030008330300083303000838
:1000D0003303000845730008330300085573000814
:1000E0003303000833030008330300083303000818
:1000F0003303000833030008330300083303000808
:1001000033030008330300083303000833030008F7
:1001100033030008330300083303000833030008E7
:100120003303000833030008552300083303000895
:100130003303000833030008330300088921000853
:100140007921000833030008330300083303000853
:100150003303000865230008752300086573000851
:100160003303000833030008330300083303000897
:1001700033030008330300083303000800000000C5
:10018000330300083303000800F002F800F0B5F86C
:1001900014A696E8000CB244B344DA4501D100F04D
:1001A000ACF8BAE80F000FA696E83000A5EB0405FE
:1001B00004EB0607AAEB0704A7F101074FEA1515A0
:1001C0004FEA3414A4F10104AC4201D300F095F8D5
:1001D00013F0010F18BFFB1A43F0010300F001F800
:1001E000DBE7184798D60000B8D60000103A24BFC5
:1001F00078C878C1FAD8520724BF30C830C144BF8C
:1002000004680C6070470000704700000023002461
:1002100000250026103A28BF78C1FBD8520728BF16
:1002200030C148BF0B6070476E2900F031837029E0
:1002300000F0678466290DF0668165290DF0638101
:1002400067290DF0608161290DF05F8103681B0A49
:1002500028BF41F08001692900F0DE82642900F0A6
:10026000DB82752900F0D8826F2900F0F5837829A8
:1002700000F03384E92900F08F83E42900F08C83B7
:10028000F52900F08983EF2900F0F283F82900F0C6
:1002900032840368DB0928BF41F08001632901F043
:1002A0005382732901F05882E32901F06382F32914
:1002B00001F06882002070471FB50DF012F99DE82B
:1002C000030000F011FA01F0BBFB04000020002144
:1002D0000CF046FC401C6060002000210CF02AFC61
:1002E000E06000F0DDFC00F0DFF81FBD10B500207D
:1002F00000F072FD00F03DFD10BD00F09AFD1146CA
:10030000FFF7DAFF0AF0D6FA01F02AFB03B4FFF791
:10031000EDFF03BC00F0BEF90948804709480047DB
:10032000FEE7FEE7FEE7FEE7FEE7FEE7FEE7FEE7A5
:10033000FEE7FEE704480549054A064B7047000002
:100340000D66000889010008C04C0020C052002042
:10035000C04E0020C04E002053EA020C00F069801D
:100360002DE9F04B4FF00006002B1FBFB3FA83F5C9
:1003700003FA05F424FA05F65E4012BF1643B2FAFA
:1003800082F502FA05F4C5F120051EBF22FA05FC2C
:1003900044EA0C04203556EA044C4FEA144418BFD2
:1003A000641C4FF000084FF00009904271EB030C01
:1003B00039D3002919BFB1FA81F701FA07F6B0FA6B
:1003C00080F700FA07F6C7F120071EBF20FA07FCE6
:1003D00046EA0C062037B6FBF4FCA7EB0507103FF6
:1003E00007F01F0BCBF120062CFA06F60CFA0BFBDC
:1003F00044BFB3460026202FA4BF5E464FF0000B3B
:100400005BEA060C08BF4FF0010B19EB0B0948EB38
:100410000608ABFB027C06FB02CC0BFB03CCC01B2B
:1004200071EB0C01C1E70B46024641464846BDE868
:10043000F08B13B5084318BF4FF0FF300146AFF300
:100440000080BDE81C4070470B460146184600F08E
:1004500009B94FF0000200B513469446964620397C
:1004600022BFA0E80C50A0E80C50B1F12001BFF46D
:10047000F7AF090728BFA0E80C5048BF0CC05DF8D3
:1004800004EB890028BF40F8042B08BF704748BF21
:1004900020F8022B11F0804F18BF00F8012B704795
:1004A000704770477047000008487CB5784400905A
:1004B00007487844009C0546019004E02046016806
:1004C00008448047241DAC42F8D17CBD18D50000FB
:1004D0002ED5000070B5064600F0E2F8056806F17A
:1004E0000B0020F00704B4429CBF002070BD2B46D7
:1004F0006A68BAB11068A04210D304F108018842BA
:100500003CBF5068586007D35168101941601168AA
:10051000091B016058601460101D70BD13465268BD
:10052000002AE7D12146284600F0CAF80028DED18B
:1005300070BD70B50446051F00F0B2F80068002CCD
:1005400014BF446870BD002C18BFAC423CBF2046AD
:100550006468F8D301680A18AA4218BF456003D13D
:100560002A6805461144016028684119A1421CBF50
:100570006C6070BD6168696021680844286070BD66
:100580002DE9F04791460C46804600F089F807684F
:10059000604234EA000001D1042C02D20520BDE8FB
:1005A000F087601E40F0070609F10B0020F00705F8
:1005B0004D4539D93B467A6882B31468101D4042D4
:1005C00006EA000C644525D9A4EB0C00854221D82D
:1005D000BCF1000F0BD0104601686244A1EB0C0186
:1005E000116041685160C0F800C05860034611684E
:1005F00005F10800814205D35019491B01601560BF
:100600005860034652F8040F58600020C8F80020D4
:10061000BDE8F08713465268002ACED129463846F5
:1006200000F04EF80028C5D10620BDE8F08710B5CF
:1006300000F03EF8006810BD10B5044600F038F830
:10064000046010BD0B460146184600F035B910B5E0
:10065000002000F0E2FBFFF749FEBDE8104001205A
:1006600000F018B82DE9F041074615460E46102057
:10067000FFF730FF04000AD06760C4E9026500F0AC
:1006800013F80168216004600020BDE8F0810120BA
:10069000FBE7000001491820ABBEFEE72600020080
:1006A0000048704754010020004870478401002032
:1006B000004870474C0100207047704770477047F2
:1006C00038B504460A4600206946AFF3008000288A
:1006D00008BF38BD02460099204600F0CFFB01203C
:1006E00038BD012001F069B9F8B5AFF300800546C7
:1006F00000200C460C2000BF0646A819A0420DD9C8
:10070000324669460020AFF30080070008BF01F0C1
:1007100054F90098A04218BF0546C419FFF7C0FF5E
:1007200005600746F01D20F007004619284600F036
:100730000AF8B44208BFF8BDA21B31463868BDE8CC
:10074000F84000F09BBB00210160416070470C2025
:10075000704770B5044685690068C10601D530262A
:1007600000E02026C00707D070BDD4E90121304643
:100770009047206A401C20626D1EF6D570BD70B592
:10078000044685690078C00707D170BDD4E901210E
:1007900020209047206A401C20626D1EF6D570BD57
:1007A00009684A0501D540B27047C905FCD500B2B9
:1007B000704709684A0501D5C0B27047C905FCD524
:1007C00080B2704770B50C460546012A05D02878DE
:1007D000800600D5EA69002302E0012305E05B1CE6
:1007E000934202D2E05C0028F9D1A869E618C01A49
:1007F000A861286A184428622846FFF7AAFF04E087
:10080000D5E9012114F8010B9047B442F8D32846EA
:10081000FFF7B5FF70BD00002DE9F041064600244A
:1008200010687529314616A510D0FFF7B9FF0028CA
:1008300002DA404213A507E031688A0701D512A504
:1008400002E0490704D511A5012401E0FFF7B1FF3B
:1008500000210A2206F1240709E0B0FBF2FCB0FBFC
:10086000F2F302FB1C00303078541846491C002873
:10087000F3D123462A463046BDE8F04100F05DBB87
:10088000000000002D0000002B00000020000000F0
:1008900011680268006A530501D508700AE0D305A3
:1008A00001D5088006E0130603D5C217C1E900028E
:1008B00000E0086001207047074B70B50D467B448F
:1008C00000F025FF0446284600F060FF10B14FF00D
:1008D000FF3070BD204670BD55C200002DE9FF5F9E
:1008E00015468A460446DFF8AC80F8440027D8E96C
:1008F00000103E46CDE9001010E03AF816106A46A6
:1009000002A801F009F8411C07D02178890603D517
:10091000E269391891420DD80744761C2078800688
:1009200002D5E069B84205DDAE42E6DB3AF81600D2
:100930000028E2D1A069C01BA0612046FFF709FF93
:10094000D8E90010CDE90010002017E03AF818109F
:100950006A4602A800F0E0FFB0F1FF3F81460BD0ED
:1009600000250DF1080B05E0D4E901211BF8050075
:1009700090476D1C4D45F7D308F10100B042804609
:10098000E4DB206A384420622046FFF7F8FEBDE829
:10099000FF9F000042CC00002DE9F0418046D21DAF
:1009A00022F007020025D2E90002F52915A614D08D
:1009B000011E72F1000106DA0023D0EB030063EBA5
:1009C000020211A608E0D8F800108B0701D50FA687
:1009D00002E0490701D50EA601251146002408F1C1
:1009E000240704E000F064FA30323A55641C50EAFF
:1009F0000102F7D12B46324621464046BDE8F04180
:100A000000F09BBA000000002D0000002B00000049
:100A10002000000030B4002100F1240408E002F0BE
:100A20000705D208303542EA4372DB086554491C99
:100A300052EA0305F3D10468002310A2250708D564
:100A400004F020040C4304D0C46901230CA2641EEA
:100A5000C46130BC00F071BA10B50446214610687C
:100A6000FFF7A7FE02462046BDE810400023D1E76D
:100A7000D21D22F00701D1E90023CBE700000000DE
:100A800030000000F0B40D460188090502D5214C64
:100A90007C4402E01F4C7C440E34002100F124060B
:100AA00008E002F00F071209E75D42EA03721B0932
:100AB0007754491C52EA0307F3D102780023120746
:100AC00004D5702D06D009B1022311342246F0BCA2
:100AD00000F033BA01231034F8E770B504460D4630
:100AE00021461068FFF765FE024629462046BDE80C
:100AF00070400023C6E7D21D22F00703D3E900238C
:100B0000C0E70368126843F0200303600823C36151
:100B10000023B7E7A4CA00002DE9F05F8946044628
:100B20004FF0000ADFF874B1FB44C0F820A0204663
:100B3000E1688847002874D0252806D0D4E901212F
:100B40009047206A401C2062F1E700265F4620465D
:100B5000E16888472028054607DB312D05D2781942
:100B600010F8200C08B10643F1E7B00701D526F0D4
:100B70000406C4F81CA00027C4F818A02A2D09D028
:100B800028460BF0C1FF38B304EB8708303DC8F8A6
:100B9000185019E059F8041B204604EB87029161B4
:100BA000E1688847012F054618D1E069002820DA5E
:100BB00026F020061DE0D8F8180000EB800005EBB9
:100BC00040003038C8F818002046E16888470546DC
:100BD0000BF09AFF0028EED1012F0AD02E2D08D15C
:100BE0002046E16888477F1C0546022F46F0200614
:100BF000C4DBA069002803DA404246F00106A06188
:100C0000F00701D026F010066C2D0BD0682D09D00E
:100C10004C2D39D06A2D35D0742D35D07A2D33D066
:100C200016E038E0E1682F4620468847B84205467E
:100C300009D16C2F26D04FF48060E168064320462E
:100C40008847054604E06C2F1AD04FF480700643A5
:100C50000DB3A5F14100192802D8203546F40066ED
:100C60004A462946204626604E46FFF7DDFA80B107
:100C700001280BD0F61D26F0070000F1080956E701
:100C80004020E4E78020D8E70020D6E706F10409F9
:100C90004DE7284652E7206ABDE8F09F34CA0000BD
:100CA00010B542485421FFF7D4FB41485421FFF7C7
:100CB000D0FB40485421FFF7CCFB3F493B483C4A1E
:100CC0003F4B08603D490A603A491960531C03656F
:100CD000481C1065012008653B48344A39A1784416
:100CE00000F07CFD20B9384878440A3800F05EFEF8
:100CF00037482F4A35A1784400F070FD20B93448B8
:100D000078440A3800F052FE32482A4A2FA178442B
:100D100000F064FD20B92F4878440A3800F046FE00
:100D200040232248DC000021224600F033FD20B1A0
:100D300025487844543800F039FE1D4822464023A7
:100D4000002100F027FD20B121487844543800F0FC
:100D50002DFE184822461023002100F01BFD00281C
:100D600006D01C487844BDE81040563800F01EBE3E
:100D700010BD104870B5006D20F001040B4800F064
:100D8000A5FD0B4800F0A2FD0A4800F09FFD09E018
:100D9000206D20F00105204600F098FD2046FFF769
:100DA000C8FB2C46002CF3D170BD00005000002081
:100DB000A4000020F8000020000000200400002013
:100DC00008000020720000008FC8000077000000BB
:100DD0007BC8000067C800002DE9F0410646FFF718
:100DE00063FC8046454613E016B1E068B0420ED180
:100DF00020682860D4E90101D8F8007088472046AF
:100E0000FFF797FBD8F80000B842EBD100E0254689
:100E10002C68002CE8D1BDE8F08110B500F0AEFDE3
:100E2000BDE8104000F0A5BD004870474C0100200F
:100E300070477546FFF7F8FFAE4605006946534612
:100E400020F00700854618B020B5FFF773FABDE81B
:100E500020404FF000064FF000074FF000084FF021
:100E6000000BAC46ACE8C009ACE8C009ACE8C0096E
:100E7000ACE8C00921F007018D4670470346406881
:100E80008C46002818BF88423CBF03464068F8D310
:100E900018681844884207D00CF1030020F00700BE
:100EA000001D411A521A0146081D0A60FFF741BB96
:100EB00030B5B0F10A0271F100034FEA900E4EEA2C
:100EC000817EB0EB0E0061EB91014FEA101E4EEAFD
:100ED000017E10EB0E0041EB11114FEA102E4EEA8D
:100EE000016E10EB0E0041EB11214FEA104E4EEA5D
:100EF000014E10EB0E0041EB1141401841F1000191
:100F00004FEAD00040EA41704FEAD1014FEA810434
:100F100044EA907410EB800544EB01046D1944EB36
:100F20000404521BA3414FF0000348BF0A3200D50E
:100F300030BD401C41F1000130BD2DE9F0470D46A8
:100F400099469246044600F124080168880604D5B3
:100F5000E06921F01001216000E00120A84201DDDC
:100F6000471B00E00027A1697A1902EB0900081A63
:100F7000A0612078C00602D42046FFF7EAFB0026D5
:100F800008E0D4E901211AF806009047206A401CC5
:100F9000761C20624E45F4DB2078C0060AD5204638
:100FA000FFF7D7FB06E0D4E9012130209047206A03
:100FB000401C2062381EA7F10107F4DC07E0D4E9E9
:100FC000012118F805009047206A401C2062281E65
:100FD000A5F10105F3DC2046FFF7D1FB20780006E0
:100FE00002D50220BDE8F0870120FBE72DE9FF4F85
:100FF0000C461E464FF0FF378BB0D2E90001DDF8FA
:1010000060800A908A46C1F30A5505B93D46002121
:1010100008464FF00000BAF1000F00F4400005DA76
:1010200000EB80004FF4400101EA50004FEA905974
:10103000B9F1010F00DDB9460A9850EA4A000ED016
:1010400044F61050A5F2FF3545432F14B8F1000FB8
:101050001ED07542291E1EDDC9F100021CE0B8F148
:10106000010F4FF0000001D0302103E0F24305E012
:101070002154401CB042FBDB3046002200212154A9
:101080000B99C1F80880C1E900200FB0BDE8F08FCE
:10109000BD1B6D1CDEE74A4600DA694206A800F077
:1010A00013FD06AB93E8070003AB83E80700504647
:1010B0000A990AF0F5FE8DE80700A0F500501F38E8
:1010C00000900398002D0ADD42F21F014A460844B1
:1010D000002303A9039068460BF05EF909E0A0F530
:1010E00000504A461F38002303A9039068460BF0BE
:1010F00068F98DE807000004000C03D04FF0FF30C2
:10110000410800E01046B8F1000F03D00022009221
:1011100015461EE0751E05D4FFF7CAFE3032625533
:101120006D1EF9D5B3460122084302D000227F1C70
:1011300004E02078302801D100227F1E002A099780
:1011400084D01DE0112D07DAFFF7B2FE3032625570
:101150006D1C50EA0102F5D1084302D00098C8B1D5
:101160000EE00021681E05E0235C625C635422549B
:10117000401E491C8142F7DBAB46A81B401E09906C
:10118000002004F80B000B98099AC0F80880C0E909
:10119000002B7AE711264FF0000857E72DE9F04FB2
:1011A00088460446D21D22F0070191B0D1E9000122
:1011B000CDE90A010BF04EFA02460B98C00F01D0A0
:1011C0002D2007E02068810701D52B2002E0202197
:1011D00001EAC000032A099001D0072A05DB034673
:1011E0004146204600F030FC0BE12078800601D516
:1011F000E06900E00620B8F1650F814606D0B8F13D
:10120000660F18D0B8F1670F70D131E00020B9F146
:10121000110F009001DB112301E009F101030AAA7B
:1012200001A90CA8FFF7E2FEDDE90C70002609F128
:101230000105834647E001204B4600904FF00047F0
:101240000AAA01A90CA8FFF7D1FEDDE90DB00C999F
:101250005D46002610B909F101000D18B9EB050033
:1012600003D4C0F1FF3609F10105A5EB09002BE01D
:10127000B9F1010F01DA4FF001090020B9F1110FA6
:101280000090484601DD112300E003460AAA01A9A7
:101290000CA8FFF7ABFEDDE90C704D460026834637
:1012A000207800070AD4AB4500DA5D4601A8012D7D
:1012B00004DD411911F8011C302907D04F4502DA2D
:1012C00017F1040F04DA012082460FE06D1EEEE7ED
:1012D000002F02DCED1B3E4403E0781CA84200DD39
:1012E0007D1CB81B00F1010A4FF000472078000771
:1012F00003D4AA4501DB4FF0FF3A0021B7F1004FBC
:101300000DF143088DF8431024D002202B23002F29
:1013100001DA7F422D230A21021EA0F1010000DC28
:101320005FB197FBF1FC97FBF1F201FB1C7C1746C8
:101330000CF1300C08F801CDEEE7A8F101000370C4
:101340002188090501D5452100E06521A0F10108AA
:1013500000F8011C09980FA9A1EB0807FF1D00B1B7
:101360000120411901EBEA70A1693844081A401EB6
:10137000A0612078C00602D42046FFF7EAF9099858
:1013800028B1D4E901219047206A401C20622078CE
:10139000C00622D52046FFF7DCF91EE0002E04DB54
:1013A000B34502DD01A8805D00E03020D4E90121D1
:1013B0009047206A401C2062761CAAF101005FEA77
:1013C000000A0AD100F03CFBC0680168405CD4E927
:1013D00001219047206A401C2062281EA5F10105CA
:1013E000DCDC07E0D4E9012118F8010B9047206A02
:1013F000401C2062381EA7F10107F3DC2046FFF7EE
:10140000BEF9032011B041E62DE9F04F04460D4628
:10141000D21D22F0070089B0D0E90097484639462E
:101420000BF018F90246F80F01D02D2307E02068D1
:10143000810701D52B2302E0202101EAC0038DF8AA
:1014400020300BB1012000E00020032A824601D0A9
:10145000072A04DB2946204600F0F6FA3FE120780F
:10146000800601D40D2500E0E569C7F30A560D2D6D
:1014700049DA00214FEA175B08464FF00000002FC1
:1014800000F4400007DA00EB80004FF4400100EB6D
:10149000D07001EA60008115012901DD4FF0FF31B4
:1014A00000224FEA850CBCF1180F06D31346ACF1AD
:1014B00018004FF08052C24003E04FF4801323FA2B
:1014C0000CF30CF10C0CBCF1200F04D3ACF1200C8C
:1014D00009FA0CF001E007FA0CF000294FF000487F
:1014E00001DD18B90FE00ED140450CD319EB02090C
:1014F0005F4121B9404502D19F4329EA0209BBEB74
:10150000175F00D0761C2088000502D57B48784400
:1015100002E07A487844193808AA302302F80A30E1
:10152000037C0AF10101002E0AF1020A53546A46B3
:1015300002DC4FF0300101E04FF031014FF00108C3
:101540008DF8001002D0A6F2FF3603E059EA4701F9
:1015500000D06B4E002D02DC2178090704D54FF036
:1015600002082E218DF80110C44600210BE0C7F3BC
:1015700003433F01C35C491C6D1E02F80830052976
:1015800008F1010801DA002DF1DC00210CE000EB8C
:101590001973491C1B786D1E082902F808304FEAA0
:1015A000091908F1010801DA002DF0DC21688B0629
:1015B00002D516E0A8F10108E04505DD02EB0803BD
:1015C00013F8013C302BF5D0B8F1000F09DD02EB28
:1015D000080313F8013C2E2B03D1090701D4A8F10D
:1015E0000108002D05DD3E2102F808106D1E08F1EE
:1015F0000108407C002E02F8080008F1010804DA16
:101600002D20764202F8080002E02B2002F80800A4
:101610000A214FF47A70864208F101080BDB96FB31
:10162000F0F3303302F8083096FBF0F308F10108CC
:1016300000FB136601E0642E0CDB642096FBF0F3E4
:10164000303302F8083096FBF0F308F1010800FB94
:10165000136601E00A2E06DB96FBF1F0303002F84B
:10166000080008F1010896FBF1F001FB1060303032
:1016700002F80800A16908F1010808EB050202EB75
:101680000A00081AA0612078C00602D42046FFF79D
:1016900060F8216A08AE01EB0A00206204E0D4E998
:1016A000012116F8010B9047BAF1010AF7D2207810
:1016B000C00602D52046FFF74CF86E4609E016F842
:1016C000010B3E280FD0D4E901219047206A401C2D
:1016D0002062B8F10108F2D22046FFF750F809B0B5
:1016E0000320BDE8F08F206A2844206203E0D4E99B
:1016F0000121302090476D1EEBD3F8E77EC000003B
:1017000002FCFFFF01694A1C02610878704700B5BE
:101710008FB0CDE901310021059105497944CDE92A
:10172000031011466846FFF7F7F90FB000BD00003F
:10173000E5FFFFFF10B5436913B1AFF3008001E08F
:10174000FFF740F8012010BD127800F124010A7063
:1017500000224A700122EDE711684FF0FF32E9E7FD
:1017600010B5436913B1AFF3008001E0FFF7B6F89D
:10177000012010BD128800F1240182840022C2845D
:101780000122EDE711684FF0FF32E9E7007B00F03E
:101790008000704770B5C468A50713D0650211D4E6
:1017A000B2F5807F09D0B2F5007F06D0B2F5806F28
:1017B00008D1012300F1240106E05D1E6FF07F4691
:1017C000B54201D3012070BD0161C361416024F4C1
:1017D00070611143C160002070BD00002DE9F0412F
:1017E0000C461646070047D0104600F06FF82078E8
:1017F000611C61280AD0722802D077283CD102E00F
:101800000125002405E00225042402E0082448F212
:10181000020511F8010B2B2806D0622809D011F817
:10182000010C74280AD00BE045F0030544F00204D3
:10183000EFE745F0040544F00104EAE744F0100442
:101840003846214600F0C0F8411C15D00021316116
:1018500071604FF40071F560F1617061200704D58B
:1018600030460222002100F093FA306D40F0010072
:1018700030653046BDE8F0810020FBE72DE9F041FE
:101880000D460646104C206DC10704D0410804D017
:1018900020F00104F7E722460EE05420FEF71AFE7E
:1018A00007000ED0206D47F0010108435421206548
:1018B0003846FEF7CEFD3A4629463046BDE8F041AF
:1018C0008CE70020D6E70000500000202DE9F0470B
:1018D00004464FF0FF380026C568D4E90497A807EE
:1018E00018D0204600F010FB384600F077F80028AA
:1018F00000DA4646280502D54846FEF71AFE4C2176
:101900002046FEF7A6FD206D20F001002065304640
:10191000BDE8F0874046FBE72DE9F04116460C464E
:10192000054600F085F8036893F80101012807D007
:10193000FF2C12D8185D80B101202C70BDE8F08119
:10194000D3F807013246214603F20713C718284689
:10195000BC46BDE8F041002360474FF0FF30EDE7A3
:1019600010B50446AFF300802046BDE81040FEF7F6
:10197000CDBC002801D0FEF78DBE704710B5002108
:1019800002A000F005FB012010BD000053494741B3
:101990004252543A2041626E6F726D616C207465E0
:1019A000726D696E6174696F6E00000010B500F0B1
:1019B00009FBBDE81040FFF7DCBF10B500F01CFBD1
:1019C000BDE81040FFF7D5BF0EB5CDE9000100F02E
:1019D00063FB029069460120ABBE0EBD08B56946A7
:1019E00000900220ABBE08BD1FB58DE80700694618
:1019F0000520ABBE04B010BD1FB58DE80F006946D1
:101A00000620ABBEF6E708B5694600900920ABBEDC
:101A100008BD1CB5CDE9000169460A20ABBE1CBD5E
:101A2000704708B5694600900C20ABBE08BD0000A9
:101A300010B500F005F8001D10BD00BF25B1000075
:101A4000004870476C0100202DE9F0411F46044614
:101A500003260168072A01F4006004DB08B116A51B
:101A600005E016A503E008B115A500E015A521F0D5
:101A700010002060A069C01EA0610FB1401EA061CF
:101A80002046FEF766FE4FB1D4E901213846904763
:101A9000206A401C2062C01C206206E0206AFAE72F
:101AA000D4E9012115F8010B9047761EF8D22046A3
:101AB000FEF765FEBDE8F0814E414E006E616E009E
:101AC000494E4600696E66002DE9F047814616468C
:101AD0008AB0354878440DC88DE80D003248784406
:101AE000801C03AC0DC884E80D0041F69B3008440F
:101AF000372190FBF1F290FBF1F5A5F1800501FB98
:101B000012041B3C02D56442012000E00020DFF8F3
:101B100098A080460027FA44AAF1BE0A0EE0E0072A
:101B20000AD03246684607EB470101230AEB8101E0
:101B30000AF047FC8DE8070064107F1C002CEED1F2
:101B4000194F7F44AE3F19E0E80715D007EB0410AA
:101B50000DF1180A90E80E008AE80E00C068F04205
:101B600001D1981908903246012306A903A80AF06A
:101B700028FC03AB83E807006D10641C002DE3D143
:101B80004FF0010332466946B8F1000F03A802D0B6
:101B90000AF002FC01E00AF014FCC9E90001C9F8EE
:101BA00008200AB0BDE8F08748BB00002DE9F05FCF
:101BB000054617460C46C86820F4201040F4800003
:101BC000C860800602D5084600F0C1F9E06841F21D
:101BD00082014FF0FF3A0140022903D0204600F075
:101BE00053F9B9E000F42041B1F5004F0FD1C00323
:101BF00006D56168E06A884200D80846606006E061
:101C00002069E06260606069FFF70BFFA061A06877
:101C10000022EEB200280DDAE1688B050AD4C04339
:101C2000A06041F490302260E0606068411C616017
:101C30000670AAE0E0689146226040F40050E0603F
:101C4000206978BB6069FFF7DEFE04F124054FF0E0
:101C50000108A8B1A08910F4407F08D0E069FEF720
:101C600039FC206118B1E06840F4006017E0C4F866
:101C70001C802561E06820F4407040F480600EE034
:101C8000E069FEF727FC00282061F0D0E06840F40E
:101C9000006010F4407FE06002D140F48070E060AA
:101CA00020696060E06825696FF0010BC1051ED5F1
:101CB0006168E06A884200D80846411B04D0224689
:101CC000284600F0EBF8E8BB1FB1E562C4E9015912
:101CD00059E0681CE0626060E069401EA060E06856
:101CE00040F48030E06030462E70BDE8F09F17B1C0
:101CF00000F480320AE06068411C61600670E068B0
:101D00000A2E40F48030E06006D00022E16A60686C
:101D1000814203D90B4602E00122F7E70346B4F8FB
:101D20000CC05B1B5FEA4C5C04D4D4F81CC09C451F
:101D300000DD02B3814200D80146002BA1EB000870
:101D4000E56200E008E0C4E9015907DD22461946D2
:101D5000284600F0A3F808B15046C6E7B8F1000FD6
:101D600009D0A169E5626560A1EB0800A061E068A7
:101D700040F01000E06047B16168A069E562491B6E
:101D800008446560A0615846AFE73046ADE7000003
:101D90002DE9F041044616460D464769007B800751
:101DA0002ED03846FFF72FFE50BB3EB3012E02D097
:101DB000022E25D104E0204600F04DF905441DE037
:101DC0003846FFF72EFEE168002841F01001E1607F
:101DD00005DA204600F058F80120BDE8F081C9037B
:101DE0000BD56268E16A914200D81146A26911449C
:101DF0002269891A814200DD08460544002D01DA76
:101E00000220EAE7E16A6068E268814206D2910353
:101E1000E06203D522F4003141F01002A6690027E8
:101E2000AE4213DCE16A814201D90B4600E0034671
:101E300003EB060C2369ACEB030CAC4506DD8142D9
:101E400001D98C4600E084469C4505D1A7602760F7
:101E500042F02000A5620DE0AD1BE669AE1B814299
:101E6000A66000D90846C01A281A20605819606078
:101E700022F0200003490840E060002084F8487008
:101E8000ABE70000BFCFD7FFC16821F4001141F0DC
:101E90008001C16000218160016070472DE9F74F2A
:101EA00015460C464FF0FF3B3848D768D2F814A0CF
:101EB000074209D05046A969FFF7ABFD002819DB9E
:101EC0003248C0430740EF604FF000496FF00048D0
:101ED0004C4501D3464600E0264600993B46504615
:101EE0003246FFF781FDA96920F00042B21A114481
:101EF000A96128B12846FFF7C7FF5846BDE8FE8F05
:101F0000A41BE5D10020F9E770B504460569C06A55
:101F10006168884200D80846E16821F42011E16038
:101F2000C90312D5A84208D02246411B2846FFF714
:101F3000B5FF10B14FF0FF3070BD0020E562C4E97D
:101F40000150E06820F48030E060002070BD10B5E2
:101F50000446C06820F02000E060A16AA0698842C1
:101F60000DD02046FFF7D0FFE06820F4405040F04D
:101F70001000E060A06AA0612069E062606044F245
:101F80004001E0688843E06010BD000010000200DE
:101F900070B505460C460A2000E06D1C00F054F8B0
:101FA00035B128780028F8D102E0641C00F04CF824
:101FB00014B120780028F8D1BDE870400A2000F064
:101FC00043B8000010B5014602A0FFF7E1FF012071
:101FD00010BD000053494752545245443A205265BF
:101FE0006469726563743A2063616E2774206F7050
:101FF000656E3A200000000010B5012805D00021D0
:1020000003A0FFF7C5FF012010BD09A1F8E70000FC
:1020100053494752544D454D3A204F7574206F66D1
:102020002068656170206D656D6F72790000000039
:102030003A2048656170206D656D6F727920636F1D
:10204000727275707465640008B569468DF8000099
:102050000320ABBE08BD10B50146C268900703D08F
:10206000900607D5886A0AE0FEF722FB012101608D
:10207000881E10BD8B69486818440B69C01A91F816
:1020800048301BB191F84910401A10BD1103FCD51E
:102090000028FADD401E10BD10B5431C02E010F808
:1020A000011B71B18107FAD14FF0013202C88C1ABD
:1020B0008C4314EAC211F9D0C01A0A0603D0C01E1C
:1020C00010BDC01A10BD0A0401D0801E10BD090247
:1020D000FCD0401E10BD000030B44FF0013C50F861
:1020E000042B51F8043BCCFA52F4D51A20D1FCB998
:1020F00050F8042B51F8043BCCFA52F4D51A17D1FE
:10210000B4B950F8042B51F8043BCCFA52F4D51A68
:102110000ED16CB950F8042B51F8043BCCFA52F4B0
:10212000D51A05D1002CDAD030BC4FF00000704732
:1021300029BAB1FA81F111F01801D1F120008440DF
:10214000F2D1CA40CB4012F0FF0213F0FF0330BCC3
:10215000D01A7047FFE7FEE780B540F67810C2F26C
:10216000000000F095FC80BD80B540F67810C2F20A
:10217000000000F08DFC80BD80B540F6A010C2F2DA
:10218000000000F085FC80BD80B540F6A010C2F2D2
:10219000000000F07DFC80BD80B58CB0012007F010
:1021A00039F90B90022007F035F90A900BA807F0D7
:1021B0006BFC40F6C801C2F20001059108600AA854
:1021C00007F062FC0146059840F6CC02C2F200021C
:1021D0001160016840F27060C2F2000006F034FB4A
:1021E00005980068B0B1FFE740F6C800C2F20000F1
:1021F0000068039047F28D41C0F6000106A80490E4
:1022000008F008F90398049907F01AFA049808F0FE
:102210000DF9FFE740F69000C2F200000078BFF32E
:102220005F8FC00710BBFFE740F69000C2F20000CE
:1022300009F083F8D0B1FFE740F6B800C2F2000021
:1022400002900BA907F000FF02994AF2B100C0F614
:10225000000040F20002C0F60002FEF7F5F840F67A
:102260009000C2F2000009F07EF8FFE740F694000B
:10227000C2F200000078BFF35F8FC00710BBFFE71A
:1022800040F69400C2F2000009F057F8D0B1FFE721
:1022900040F6BC00C2F2000001900AA907F0D4FE8B
:1022A00001994AF2B100C0F6000040F20002C0F607
:1022B0000002FEF7C9F840F69400C2F2000009F0EF
:1022C00052F8FFE70AA807F0F3FE0BA807F0F0FEAC
:1022D0000CB080BD80B582B00190FFE7012008F00E
:1022E00021FBFBE780B582B00190FFE7012008F0F9
:1022F00019FBFBE780B582B00190FFE744F6CC10F4
:10230000C2F2000006F06EFF40F65850C2F2000024
:1023100006F07AFF012008F005FBEFE780B582B0F8
:102320000190FFE740F26C60C2F2000006F078FF17
:1023300040F2AC70C2F2000006F07AFF0A2008F00A
:10234000F1FAEFE780B540F68820C2F2000001F014
:1023500087F880BD80B540F6C810C2F2000001F0D9
:102360007FF880BD80B540F6E820C2F2000001F0A1
:1023700077F880BD80B540F62820C2F2000001F059
:102380006FF880BD82B001900198007810384AF64D
:10239000AB21CAF6AA21A0FB011000090090009908
:1023A0004DF2DC60C0F60000405C0199C865009801
:1023B000042807D3FFE701990868042262F30900A3
:1023C000886506E00199086840F2FF32904388650D
:1023D000FFE70198806D02B07047000086B005905D
:1023E00000208DF813000598806A03900598806995
:1023F00010BBFFE70398029003281BD80299DFE87F
:1024000001F0020D0218059890F82F00C00720B1C6
:10241000FFE701208DF81300FFE70CE00598C06A84
:10242000B0F1C07F04D1FFE701208DF81300FFE772
:1024300001E000E0FFE745E005988069B0F5005F46
:1024400025D1FFE70398019003281ED80199DFE802
:1024500001F00206021101208DF8130016E0059824
:1024600090F82F00C00720B1FFE701208DF813007E
:10247000FFE70BE00598C06AB0F1C07F04D1FFE729
:1024800001208DF81300FFE700E0FFE719E0039853
:102490000090032804D3FFE70098032804D00EE03F
:1024A00001208DF813000BE0059890F82F00C0076D
:1024B00020B1FFE701208DF81300FFE700E0FFE700
:1024C000FFE7FFE79DF8130006B0704784B0039064
:1024D00002910192009303980168086820F480201B
:1024E000086000980399096848600398806840284C
:1024F00009D1FFE701980399096888600298039958
:102500000968C86008E00298039909688860019822
:1025100003990968C860FFE704B07047704700007E
:1025200072B6FFE7FEE7000084B0029001910298C6
:1025300090F820008DF803009DF80300012805D0D5
:10254000FFE79DF8030002280AD1FFE7019A0298ED
:10255000016848691043486100208DF80F0008E0C9
:102560000299486A40F48020486201208DF80F00EB
:10257000FFE79DF80F0004B07047000088B0069098
:10258000059104920393069890F820008DF80700B7
:1025900006980068806800900598806808B9FFE791
:1025A00000E0FFE79DF80700012806D0FFE79DF84F
:1025B0000700022840F08080FFE79DF803004007F5
:1025C00000280CD4FFE79DF803000007002806D47C
:1025D000FFE79DF80300C006002864D5FFE70098D8
:1025E000C0F30160029002990120884003990860BD
:1025F0000598806868B9FFE705980168C06840EAF7
:10260000415006990968029A01EB0211C1F8800154
:102610000EE005994A688868C96840EAC200084324
:1026200006990968029A01EB0211C1F88001FFE7DF
:102630000598006906990968029A01EB0211C1F830
:1026400084010598007D01280CD1FFE706980068F9
:10265000029900EB0111D1F8840140F48070C1F8B7
:102660008401FFE70498406806990968029A01EB23
:102670000211C1F88C010498006806990968029A51
:1026800001EB0211C1F8880106980068029900EB7D
:102690000111D1F8800140F00100C1F88001002053
:1026A0008DF81F0011E00699486A40F40010486256
:1026B00001208DF81F0008E00699486A40F4802048
:1026C000486201208DF81F00FFE79DF81F0008B049
:1026D0007047000086B004900391049890F82000A1
:1026E0008DF803009DF80300012806D0FFE79DF850
:1026F0000300022840F0B080FFE746F20040C4F239
:10270000000001900199D1F8000240F00100C1F8E9
:1027100000020199D1F8000220F47C50C1F80002B7
:102720000398426A0199D1F8000240EA0220C1F8F8
:1027300000020398406900F01F01012088400290C8
:10274000029A0199D1F81C029043C1F81C02039827
:10275000C069F0B9FFE7029A0199D1F80C029043E1
:10276000C1F80C02039A9088D168526940EA01408E
:10277000019901EBC201C1F84002039A10889168E7
:10278000526940EA0140019901EBC201C1F84402DB
:10279000FFE70398C06901281ED1FFE7029A01995B
:1027A000D1F80C021043C1F80C02039A908811680A
:1027B000526940EA0140019901EBC201C1F84002AF
:1027C000039A90899168526940EA0140019901EBAE
:1027D000C201C1F84402FFE70398806940B9FFE7EE
:1027E000029A0199D1F804029043C1F8040207E06B
:1027F000029A0199D1F804021043C1F80402FFE7DC
:102800000398006940B9FFE7029A0199D1F81402D0
:102810009043C1F8140207E0029A0199D1F814021A
:102820001043C1F81402FFE70398006A012808D199
:10283000FFE7029A0199D1F81C021043C1F81C026B
:10284000FFE70199D1F8000220F00100C1F8000271
:1028500000208DF8170008E00499486A40F48020B1
:10286000486201208DF81700FFE79DF8170006B0B9
:102870007047000081B0009001B0704786B00490AE
:10288000039102920193049890F820008DF80300C0
:102890009DF80300012806D0FFE79DF803000228F9
:1028A00040F0E880FFE7039880B9FFE704980068EC
:1028B000C068800748B9FFE70499486A40F40010EF
:1028C000486201208DF81700DDE00FE004980068F1
:1028D0000069800748B9FFE70499486A40F400108E
:1028E000486201208DF81700CDE0FFE704980068EA
:1028F000039900EB0110D0F8B00100F00400029938
:1029000088600298806858B9FFE7049800680399C6
:1029100000EB0110D0F8B001400D029908600AE008
:1029200004980068039900EB0110D0F8B001C008CA
:1029300002994860FFE704980068039900EB0110D2
:10294000D0F8B00100F002000299C8600498006855
:10295000039900EB0110D0F8B40100F00F00082833
:1029600004D3FFE70299082008610BE0049800688F
:10297000039900EB0110D0F8B40100F00F000299A8
:102980000861FFE704980068039900EB0110D0F894
:10299000B40180B2000A0299886104980068039922
:1029A00000EB0110D0F8B401000C029948610498C2
:1029B0000068039900EB0110D0F8B8010199087084
:1029C00004980068039900EB0110D0F8B801000AE0
:1029D0000199487004980068039900EB0110D0F841
:1029E000B801000C0199887004980068039900EB05
:1029F0000110D0F8B801000E0199C8700498006861
:102A0000039900EB0110D0F8BC01019908710498FA
:102A10000068039900EB0110D0F8BC01000A01998D
:102A2000487104980068039900EB0110D0F8BC01CC
:102A3000000C0199887104980068039900EB01105B
:102A4000D0F8BC01000E0199C871039838B9FFE7AE
:102A500004980168C86840F02000C86006E0049847
:102A60000168086940F020000861FFE700208DF848
:102A7000170008E00499486A40F480204862012069
:102A80008DF81700FFE79DF8170006B070470000AB
:102A900080B58AB0099000200890099800684069C4
:102AA0000790099800684068069009980068806857
:102AB000059009980068C06804900998006800694A
:102AC000039009980068806902909DF81C00C00777
:102AD000002800F09480FFE79DF81400C00758B369
:102AE000FFE709980168012088609DF814008007BD
:102AF000002804D5FFE7099800F002FC1BE09DF8D0
:102B000014004007002805D5FFE7089840F400604E
:102B100008900FE09DF814000007002805D5FFE796
:102B2000089840F48050089003E0099800F0E4FB16
:102B3000FFE7FFE7FFE7FFE79DF81500C00760B379
:102B4000FFE7099801684FF4807088609DF81500D0
:102B50008007002804D5FFE7099800F0D9FB1BE0A7
:102B60009DF815004007002805D5FFE7089840F4B8
:102B7000005008900FE09DF815000007002805D5CB
:102B8000FFE7089840F48040089003E0099800F0BF
:102B9000BBFBFFE7FFE7FFE7FFE79DF81600C00775
:102BA00060B3FFE7099801684FF4803088609DF8B2
:102BB00016008007002804D5FFE7099800F0B0FB55
:102BC0001BE09DF816004007002805D5FFE7089890
:102BD00040F4004008900FE09DF816000007002820
:102BE00005D5FFE7089840F48030089003E0099885
:102BF00000F092FBFFE7FFE7FFE7FFE7FFE79DF845
:102C00001C000007002810D5FFE79DF81000C00643
:102C1000002809D5FFE7089840F40070089009984B
:102C200001681020C860FFE7FFE79DF81C0040071F
:102C300000280FD5FFE79DF810000007002808D5F1
:102C4000FFE7099801680820C860099800F0E0FAD9
:102C5000FFE7FFE79DF81C00800700280BD5FFE782
:102C600009980068C068800720B1FFE7099800F064
:102C7000D3FAFFE7FFE79DF81C004006002810D5B7
:102C8000FFE79DF80C00C006002809D5FFE708986B
:102C900040F4806008900998016810200861FFE7FF
:102CA000FFE79DF81C00800600280FD5FFE79DF880
:102CB0000C000007002808D5FFE7099801680820E4
:102CC0000861099800F0C6FAFFE7FFE79DF81C00CD
:102CD000C00600280BD5FFE7099800680069800747
:102CE00020B1FFE7099800F0B9FAFFE7FFE79DF888
:102CF0001E00800700280FD5FFE79DF81800C006CA
:102D0000002808D5FFE70998016810204860099855
:102D100000F0A8FAFFE7FFE79DF81E00C00778B1B2
:102D2000FFE79DF818000007002808D5FFE709987D
:102D3000016808204860099800F0F6FAFFE7FFE70D
:102D40009DF81D000006002840F18D80FFE79DF8EA
:102D500018004007002840F18180FFE79DF81D0022
:102D6000C00750B1FFE79DF80800C00728B1FFE792
:102D7000089840F001000890FFE79DF81D008007CB
:102D800000280BD5FFE79DF808008007002805D52F
:102D9000FFE7089840F002000890FFE79DF81D004B
:102DA000400700280BD5FFE79DF8080040070028E2
:102DB00005D5FFE7089840F004000890FFE79DF86C
:102DC0001D000007002848D5FFE79DF8080010F017
:102DD000700F42D0FFE7029800F0700001460191A9
:102DE000102814D0FFE70198202815D0FFE701989C
:102DF000302816D0FFE70198402817D0FFE7019848
:102E0000502818D0FFE70198602819D01DE00898D5
:102E100040F00800089019E0089840F01000089071
:102E200014E0089840F0200008900FE0089840F067
:102E3000400008900AE0089840F08000089005E003
:102E4000089840F48070089000E0FFE70998016856
:102E5000886920F070008861FFE7FFE70998016842
:102E600004204860FFE7089848B1FFE7089A0999ED
:102E7000486A104348620998FFF7FCFCFFE70AB074
:102E800080BD000080B584B00290029820B9FFE7B1
:102E900001208DF80F00E0E0029890F8200020B9A2
:102EA000FFE7029800F0DEF8FFE702980168086883
:102EB00040F00100086000F059FF0190FFE7029820
:102EC00000684068C007A8B9FFE700F04FFF01990C
:102ED000401A0B280DD3FFE70299486A40F40030EE
:102EE00048620299052081F8200001208DF80F002A
:102EF000B3E0E4E702980168086820F00200086087
:102F000000F034FF0190FFE70298006840688007F6
:102F1000002815D5FFE700F029FF0199401A0B287A
:102F20000DD3FFE70299486A40F4003048620299E5
:102F3000052081F8200001208DF80F008DE0E3E7E7
:102F40000298007E012807D1FFE70298016808680F
:102F500040F08000086006E002980168086820F0F0
:102F600080000860FFE70298407E012807D1FFE754
:102F700002980168086840F04000086006E0029886
:102F80000168086820F040000860FFE70298807E32
:102F9000012807D1FFE702980168086840F0200087
:102FA000086006E002980168086820F020000860C8
:102FB000FFE70298C07E012807D1FFE70298016869
:102FC000086820F01000086006E0029801680868B0
:102FD00040F010000860FFE70298007F012807D149
:102FE000FFE702980168086840F00800086006E002
:102FF00002980168086820F008000860FFE702985E
:10300000407F012807D1FFE702980168086840F077
:103010000400086006E002980168086820F00400D7
:103020000860FFE7029B19685A689868D3F80CC0DB
:1030300040EA0C00D3F810C040EA0C005B6918436A
:10304000013A1043C861029900204862029A0121A6
:1030500082F820108DF80F00FFE79DF80F0004B0F4
:1030600080BD000080B594B01390002012901190A4
:1030700010900F900E901398006846F20041C4F231
:103080000001884253D1FFE740F2EC10C2F2000089
:103090000168013101600068012812D1FFE7FFE7F4
:1030A00000200D9043F64000C4F20200016841F098
:1030B00000710160006800F000700D900D98FFE74E
:1030C000FFE7FFE700200C9043F63000C4F2020057
:1030D000016841F008010160006800F008000C90F0
:1030E0000C98FFE703200E9002210F910021079119
:1030F000109111900920129040F60040C4F2020095
:103100000EA900F057FC079A13200590052106919F
:1031100000F000FF059800F0F3FE0699079A1420CE
:10312000089000F0F7FE089800F0EAFE6EE01398B1
:10313000006846F60001C4F20001884265D1FFE74D
:10314000FFE700200B9043F64000C4F20200016844
:1031500041F080610160006800F080600B900B9886
:10316000FFE740F2EC10C2F200000168013101609B
:103170000068012812D1FFE7FFE700200A9043F61C
:103180004000C4F20200016841F000710160006873
:1031900000F000700A900A98FFE7FFE7FFE70020C1
:1031A000099043F63000C4F20200016841F00201C8
:1031B0000160006800F0020009900998FFE76020B4
:1031C0000E9002200F900020039010900320119089
:1031D0000920129040F20040C4F202000EA900F053
:1031E000E9FB039A3F2001900521029100F092FE35
:1031F000019800F085FE0299039A4020049000F0A7
:1032000089FE049800F07CFEFFE7FFE714B080BD64
:1032100081B0009001B0704780B582B001900198F4
:10322000006846F20041C4F20001884203D1FFE782
:1032300004F05CF90CE00198006846F60001C4F265
:103240000001884203D1FFE704F064F9FFE7FFE7DC
:1032500002B080BD81B0009001B0704781B0009095
:1032600001B0704781B0009001B0704780B584B064
:103270000290029890F8200001282FD1FFE70299D0
:10328000022081F8200002980168086820F00100FF
:10329000086000F06BFD0190FFE70298006840684D
:1032A000C007A8B1FFE700F061FD0199401A0B28A3
:1032B0000DD3FFE70299486A40F400304862029952
:1032C000052081F8200001208DF80F000FE0E4E7D1
:1032D0000299002048628DF80F0008E00299486AC0
:1032E00040F40020486201208DF80F00FFE79DF8B0
:1032F0000F0004B080BD000081B0009001B07047A5
:1033000081B0009001B0704781B0009001B070476B
:1033100081B0009001B0704781B0009001B070475B
:1033200081B0009001B0704781B0009001B070474B
:1033300080B584B002900298806D019000F016FD77
:103340000090029890F8350002280DD0FFE702990E
:1033500080204865FFE70299002081F83400FFE7EC
:1033600001208DF80F0055E002980168086820F0F0
:103370001600086002980168486920F080004861E2
:103380000298006C20B9FFE70298806C38B1FFE723
:1033900002980168086820F008000860FFE70298BA
:1033A0000168086820F001000860FFE702980068E3
:1033B0000068C007C8B1FFE700F0D8FC0099401AC8
:1033C000062811D3FFE702992020486502990320BF
:1033D00081F83500FFE70299002081F83400FFE70B
:1033E00003208DF80F0015E0E0E70298C16D3F2043
:1033F0008840019988600299012081F83500FFE733
:103400000299002081F83400FFE7FFE700208DF8E3
:103410000F00FFE79DF80F0004B080BD82B0009060
:10342000009890F83500022807D0FFE70099802027
:10343000486501208DF807000EE00099052081F80D
:10344000350000980168086820F001000860FFE777
:1034500000208DF80700FFE79DF8070002B07047D5
:1034600080B586B005900020039040F21000C2F2B3
:103470000000006848F2B511C1F64E31A0FB011002
:10348000800A02900598806D019001980068049070
:1034900004980599C96DC840000700281AD5FFE7B0
:1034A0000598006800684007002812D5FFE70598D6
:1034B0000168086820F0040008600598C16D0820C4
:1034C0008840019988600599486D40F00100486581
:1034D000FFE7FFE704980599C96DC840C007A0B190
:1034E000FFE7059800684069000600280CD5FFE753
:1034F0000598C16D01208840019988600599486D43
:1035000040F002004865FFE7FFE704980599C96DA0
:10351000C8404007002814D5FFE7059800680068F8
:10352000800700280CD5FFE70598C16D042088406E
:10353000019988600599486D40F004004865FFE7EF
:10354000FFE704980599C96DC840C006002847D513
:10355000FFE7059800680068000700283FD5FFE7EF
:103560000598C16D10208840019988600598006811
:103570000068400300281AD5FFE705980068006836
:103580000003002809D4FFE70598006C20B1FFE78D
:103590000598016C8847FFE708E00598806C20B12A
:1035A000FFE70598816C8847FFE7FFE716E005987D
:1035B00000680068C005002807D4FFE70598016887
:1035C000086820F008000860FFE70598006C20B14B
:1035D000FFE70598016C8847FFE7FFE7FFE7FFE794
:1035E00004980599C96DC8408006002840F18D8077
:1035F000FFE7059800680068C006002840F1848055
:10360000FFE70598C16D20208840019988600598E2
:1036100090F83500052834D1FFE70598016808685F
:1036200020F01600086005980168486920F08000C5
:1036300048610598006C20B9FFE70598806C38B1A7
:10364000FFE705980168086820F008000860FFE7B8
:103650000598C16D3F208840019988600599012037
:1036600081F83500FFE70599002081F83400FFE775
:103670000598006D20B1FFE70598016D8847FFE7C9
:103680007BE0059800680068400300281AD5FFE732
:103690000598006800680003002809D4FFE7059832
:1036A000406C20B1FFE70598416C8847FFE708E0D0
:1036B0000598C06B20B1FFE70598C16B8847FFE70D
:1036C000FFE720E0059800680068C005002811D4D5
:1036D000FFE705980168086820F010000860059968
:1036E000012081F83500FFE70599002081F83400BA
:1036F000FFE7FFE70598C06B20B1FFE70598C16BB6
:103700008847FFE7FFE7FFE7FFE70598406DA0B3B5
:10371000FFE70598406DC00730B3FFE70599052026
:1037200081F8350005980168086820F001000860FC
:10373000FFE70398013003900299884201D9FFE71F
:1037400007E0FFE7059800680068C0070028F0D18F
:10375000FFE70599012081F83500FFE70599002072
:1037600081F83400FFE7FFE70598C06C20B1FFE760
:103770000598C16C8847FFE7FFE706B080BD0000F1
:1037800080B586B004900020039000F0EFFA02901C
:10379000049820B9FFE701208DF81700A3E00498F2
:1037A000406A08B1FFE7FFE70499022081F835007D
:1037B000FFE70499002081F83400FFE704980168CE
:1037C000086820F001000860FFE7049800680068BE
:1037D000C00790B1FFE700F0C9FA0299401A062825
:1037E0000AD3FFE70499202048650499032081F853
:1037F00035008DF8170076E0E7E704980068006868
:103800000390039848F23F01CFF210010840039063
:10381000049900914868D1F808C0CB680A6940EA69
:103820000C00184310434A6910438A691043CA695F
:103830001043096A01430398084303900498406ABF
:10384000042808D1FFE70499C86A096B014303986B
:1038500008430390FFE703980499096808600498F7
:10386000006840690390039820F0070003900498D3
:10387000416A0398084303900498406A04281AD1C7
:10388000FFE70498816A0398084303900498C06A8C
:1038900080B1FFE70498FEF7A1FD50B1FFE704995E
:1038A000402048650499012081F835008DF8170003
:1038B00019E0FFE7FFE70398049909684861049855
:1038C000FEF760FD01900498C16D3F20884001998A
:1038D0008860049900204865049A012182F8351017
:1038E0008DF81700FFE79DF8170006B080BD0000B7
:1038F00080B588B0069005910492039300208DF85E
:103900000B000698806D0190FFE7069890F8340050
:10391000012804D1FFE702208DF81F0045E0069939
:10392000012081F83400FFE7FFE7069890F83500A2
:1039300001282BD1FFE70699022081F8350006996E
:103940000020486506980599049A039BFEF7BEFD82
:103950000698C16D3F2088400199886006980168EB
:10396000086840F0160008600698006C38B1FFE760
:1039700006980168086840F008000860FFE70698AC
:103980000168086840F00100086009E0FFE7069957
:10399000002081F83400FFE702208DF80B00FFE7DC
:1039A0009DF80B008DF81F00FFE79DF81F0008B081
:1039B00080BD00008EB00D900C9100200A900990FF
:1039C00008900B90FFE70B980F2800F2CC81FFE7DF
:1039D0000B99012088400A900C9800680A990840C9
:1039E000099009980A99884240F0B881FFE70C983D
:1039F000406800F00300012807D0FFE70C984068FA
:103A000000F0030002282FD1FFE70D98806808908E
:103A10000B984100032000FA01F1089888430890B0
:103A20000C98C0680B99490000FA01F10898084306
:103A3000089008980D9988600D98406808900B9937
:103A4000012000FA01F10898884308900C9840681A
:103A5000C0F300100B9900FA01F108980843089090
:103A600008980D994860FFE70C98406800F0030043
:103A7000032818D0FFE70D98C06808900B98410004
:103A8000032000FA01F10898884308900C98806898
:103A90000B99490000FA01F108980843089008982A
:103AA0000D99C860FFE70C98406800F003000228F9
:103AB00026D1FFE70D980B996FF0030202EA51013E
:103AC0000844006A08900B9800F0070081000F205E
:103AD00000FA01F10898884308900C9800690B9946
:103AE00001F00701890000FA01F1089808430890E5
:103AF00008980D990B9B02EA530211440862FFE7F4
:103B00000D98006808900B984100032000FA01F11D
:103B10000898884308900C98406800F003000B99BF
:103B2000490000FA01F108980843089008980D9997
:103B300008600C9880798007002800F00E81FFE76C
:103B4000FFE70020079043F64400C4F2020001683A
:103B500041F480410160006800F4804007900798BC
:103B6000FFE70B9820F0030043F60801C4F20101BF
:103B7000405808900B9800F0030081000F2000FAD5
:103B800001F10898884308900D980021C4F20201C1
:103B9000884203D1FFE7002006905EE00D9840F2D6
:103BA0000041C4F20201884203D1FFE701200590E1
:103BB00050E00D9840F60001C4F20201884203D1A2
:103BC000FFE70220049042E00D9840F60041C4F265
:103BD0000201884203D1FFE70320039034E00D98EF
:103BE00041F20001C4F20201884203D1FFE7042040
:103BF000029026E00D9841F20041C4F20201884291
:103C000003D1FFE70520019018E00D9841F600016F
:103C1000C4F20201884203D1FFE7062000900AE0C7
:103C20000D9941F60042C4F202020820914208BFF9
:103C300007200090FFE700980190FFE701980290AD
:103C4000FFE702980390FFE703980490FFE70498CA
:103C50000590FFE705980690FFE70698C0B20B991C
:103C600001F00301890000FA01F108980843089067
:103C700008980B9921F0030143F60802C4F20102EF
:103C8000885043F60840C4F2010000680890099982
:103C90000898884308900C988079C006002805D5BC
:103CA000FFE70999089808430890FFE7089843F64A
:103CB0000841C4F20101086043F60C40C4F201005F
:103CC0000068089009990898884308900C988079B2
:103CD0008006002805D5FFE7099908980843089051
:103CE000FFE7089843F60C41C4F20101086043F66F
:103CF0000440C4F2010000680890099908988843BC
:103D000008900C9880798007002805D5FFE709996D
:103D1000089808430890FFE7089843F60441C4F266
:103D20000101086043F60040C4F2010000680890F9
:103D300009990898884308900C988079C00728B1A1
:103D4000FFE70999089808430890FFE7089843F6A9
:103D50000041C4F201010860FFE7FFE7FFE70B98AD
:103D600001300B902FE60EB07047000044F6B410FF
:103D7000C2F200000068704740F24000C2F200004A
:103D8000027844F6B411C2F20001086810440860D9
:103D90007047000080B543F60041C4F20201086894
:103DA00040F400700860086840F4806008600868AB
:103DB00040F480700860032000F0C6F80F2000F087
:103DC00005F800F071F8002080BD000080B58CB0CF
:103DD0000B90002005900490FFE70020019043F62F
:103DE0004400C4F20200016841F001010160006872
:103DF00000F0010001900198FFE706A803A900F078
:103E0000DDF900F01DFA4000059005984DF683613C
:103E1000C4F21B31A0FB01014FF0FF3000EB9140D9
:103E2000049040F64830C2F200000021C4F20101C3
:103E3000016040F2E731C1600499416000210161F5
:103E40008160816100F07CFE8DF80B009DF80B0015
:103E500028BBFFE740F64830C2F2000000F0C2FE87
:103E60008DF80B009DF80B00C0B9FFE7192000F09A
:103E700047F80B980F280CD8FFE70B991920002260
:103E800000F048F80B9840F24401C2F200010860CB
:103E900003E001208DF80B00FFE7FFE7FFE79DF847
:103EA0000B000CB080BD000080B582B0FFE70020A1
:103EB000019043F64400C4F20200016841F48041DD
:103EC0000160006800F4804001900198FFE7FFE77F
:103ED0000020009043F64000C4F20200016841F067
:103EE00080510160006800F0805000900098FFE76A
:103EF0006FF001000F21002200F00CF802B080BD2D
:103F000080B582B08DF807009DF9070006F0D4FA5D
:103F100002B080BD80B586B08DF817000491039281
:103F20000020029006F0E0FA02909DF9170001903F
:103F300002980499039A02F043FA0146019806F0A8
:103F4000DBFA06B080BD000080B582B00190019818
:103F500006F0F4FA02B080BD80B584B00290019101
:103F6000029820B9FFE701208DF80F0021E10198A8
:103F700043F60041C4F20201096801F007018842DA
:103F800012D9FFE7019943F60040C4F20200017024
:103F9000006800F007000199884204D0FFE7012083
:103FA0008DF80F0005E1FFE70298007880070028F0
:103FB0002AD5FFE7029800784007002809D5FFE7D7
:103FC00043F60801C4F20201086840F4E0500860BA
:103FD000FFE7029800780007002809D5FFE743F6BD
:103FE0000801C4F20201086840F460400860FFE77D
:103FF00043F60801C4F20201086820F0F000029ABA
:10400000926810430860FFE702980078C007002814
:104010006ED0FFE702984068012811D1FFE743F610
:104020000000C4F20200006800F400310020B0EB90
:10403000514F04D1FFE701208DF80F00B9E02CE0CB
:1040400002984068022805D0FFE7029840680328DC
:1040500011D1FFE743F60000C4F20200006800F04F
:1040600000710020B0EB516F04D1FFE701208DF803
:104070000F009EE010E043F60000C4F2020000686A
:1040800000F002010020B0EB510F04D1FFE7012046
:104090008DF80F008DE0FFE7FFE743F60801C4F25B
:1040A0000201086820F00300029A52681043086079
:1040B000FFF75CFE0090FFE743F60800C4F2020041
:1040C000006800F00C0002994968B0EB810F0ED037
:1040D000FFE7FFF74BFE0099401A41F28931884211
:1040E00004D3FFE703208DF80F0062E0E4E7FFE769
:1040F000019843F60041C4F20201096801F007018A
:10410000884212D2FFE7019943F60040C4F2020050
:104110000170006800F007000199884204D0FFE7B1
:1041200001208DF80F0044E0FFE702980078400777
:1041300000280CD5FFE743F60801C4F20201086825
:1041400020F4E050029AD26810430860FFE702981A
:104150000078000700280DD5FFE743F60801C4F2F8
:104160000201086820F46040029A126940EAC20025
:104170000860FFE700F076F843F60801C4F2020198
:104180000968C9B20A094DF2C461C0F60001895C30
:10419000C84040F21001C2F20001086040F2440041
:1041A000C2F200000068FFF711FE00208DF80F003A
:1041B000FFE79DF80F0004B080BD000082B00190C1
:1041C000009101990F20086043F60800C4F2020034
:1041D000016801F00301019A5160016801F0F001EA
:1041E000019A9160016801F4E051019AD160006880
:1041F00000F46040C0080199086143F60040C4F231
:104200000200006800F007000099086002B07047E3
:1042100040F21000C2F200000068704780B5FFF75E
:10422000F7FF43F60801C4F202010968C1F38222D4
:104230004DF2D461C0F60001895CC84080BD000029
:1042400080B5FFF7E5FF43F60801C4F202010968F3
:1042500089B24A0B4DF2D461C0F60001895CC840B6
:1042600080BD000080B586B00020059004900390CA
:10427000029043F60800C4F20200006800F00C004F
:104280000146019140B1FFE7019804280AD0FFE7F9
:10429000019808280CD04FE042F20040C0F2F40030
:1042A00002904FE041F60030C0F2B700029049E0C2
:1042B00043F60400C4F20200016801F03F010591D9
:1042C00000684002002813D5FFE743F60400C4F25B
:1042D00002000068C0F3881041F60031C0F2B70157
:1042E000A0FB0101059A0023FCF736F8049012E0C8
:1042F00043F60400C4F202000068C0F3881042F2E2
:104300000041C0F2F401A0FB0101059A0023FCF773
:1043100023F80490FFE743F60400C4F202000068AB
:1043200000F44031022000EBD1300390049803994F
:10433000B0FBF1F0029005E042F20040C0F2F40060
:104340000290FFE7029806B080BD000080B586B0FD
:104350000490049820B9FFE701208DF8170050E37E
:1043600004980078C007002800F0A580FFE743F616
:104370000800C4F20200006800F00C00042813D00A
:10438000FFE743F60800C4F20200006800F00C00EA
:1043900008281ED1FFE743F60400C4F202000068BB
:1043A0004002002815D5FFE743F60000C4F20200E2
:1043B000006800F400310020B0EB514F08D0FFE757
:1043C0000498406820B9FFE701208DF8170018E332
:1043D00070E0FFE704984068B0F5803F09D1FFE73F
:1043E00043F60001C4F20201086840F4803008601E
:1043F00020E004984068B0F5A02F0DD1FFE743F608
:104400000001C4F20201086840F4802008600868D6
:1044100040F4803008600CE043F60001C4F2020171
:10442000086820F480300860086820F48020086064
:10443000FFE7FFE7FFE704984068E8B1FFE7FFF711
:1044400095FC0390FFE743F60000C4F20200006809
:1044500000F400310020B0EB514F0CD1FFE7FFF723
:1044600085FC0399401A652804D3FFE703208DF8E3
:104470001700C6E2E7E71CE0FFF778FC0390FFE7D0
:1044800043F60000C4F20200006800F4003100208E
:10449000B0EB514F0CD0FFE7FFF768FC0399401ACF
:1044A000652804D3FFE703208DF81700A9E2E7E7AA
:1044B000FFE7FFE7FFE7049800788007002840F156
:1044C0009680FFE743F60800C4F20200006810F08F
:1044D0000C0F13D0FFE743F60800C4F20200006897
:1044E00000F00C0008282CD1FFE743F60400C4F2CA
:1044F000020000684002002823D4FFE743F60000D2
:10450000C4F20200006800F002010020B0EB510F7D
:1045100009D0FFE70498C068012804D0FFE7012014
:104520008DF817006DE243F60001C4F2020108683D
:1045300020F0F800049A126940EAC2000860FFE720
:1045400054E00498C06870B3FFE70021C4F247212B
:1045500001200860FFF70AFC0390FFE743F6000024
:10456000C4F20200006800F002010020B0EB510F1D
:104570000CD1FFE7FFF7FAFB0399401A032804D395
:10458000FFE703208DF817003BE2E7E743F6000161
:10459000C4F20201086820F0F800049A126940EAA7
:1045A000C200086021E00021C4F247210020086019
:1045B000FFF7DCFB0390FFE743F60000C4F20200C4
:1045C000006800F002010020B0EB510F0CD0FFE7B3
:1045D000FFF7CCFB0399401A032804D3FFE703201D
:1045E0008DF817000DE2E7E7FFE7FFE7FFE7049824
:1045F0000078000700284BD5FFE70498406918B3FE
:10460000FFE740F68061C4F2472101200860FFF710
:10461000ADFB0390FFE743F67400C4F202000068AC
:1046200000F002010020B0EB510F0CD1FFE7FFF7C3
:104630009DFB0399401A032804D3FFE703208DF85C
:104640001700DEE1E7E722E040F68061C4F247218F
:1046500000200860FFF78AFB0390FFE743F6740031
:10466000C4F20200006800F002010020B0EB510F1C
:104670000CD0FFE7FFF77AFB0399401A032804D315
:10468000FFE703208DF81700BBE1E7E7FFE7FFE74F
:10469000049800784007002840F1CE80FFE7002012
:1046A0008DF8070043F64000C4F202000068C00025
:1046B000002815D4FFE7FFE70020009043F64000F4
:1046C000C4F20200016841F080510160006800F00E
:1046D000805000900098FFE701208DF80700FFE769
:1046E00047F20000C4F200000068C005002822D490
:1046F000FFE747F20001C4F20001086840F480704F
:104700000860FFF733FB0390FFE747F20000C4F2B5
:1047100000000068C00500280CD4FFE7FFF726FB67
:104720000399401A032804D3FFE703208DF81700EC
:1047300067E1EAE7FFE7FFE704988068012809D10D
:10474000FFE743F67001C4F20201086840F001007F
:1047500008601FE00498806805280DD1FFE743F644
:104760007001C4F20201086840F0040008600868A3
:1047700040F0010008600CE043F67001C4F2020151
:10478000086820F001000860086820F00400086054
:10479000FFE7FFE7FFE704988068F8B1FFE7FFF75E
:1047A000E5FA0390FFE743F67000C4F202000068E8
:1047B00000F002010020B0EB510F0ED1FFE7FFF730
:1047C000D5FA0399401A41F28931884204D3FFE7B0
:1047D00003208DF8170014E1E5E71EE0FFF7C6FAA5
:1047E0000390FFE743F67000C4F20200006800F097
:1047F00002010020B0EB510F0ED0FFE7FFF7B6FA31
:104800000399401A41F28931884204D3FFE703201B
:104810008DF81700F5E0E5E7FFE79DF807000128B0
:1048200009D1FFE743F64001C4F20201086820F015
:1048300080500860FFE7FFE704988069002800F0D7
:10484000DC80FFE743F60800C4F20200006800F0D5
:104850000C00082800F08580FFE704988069022892
:104860005CD1FFE76021C4F2472100200860FFF718
:104870007DFA0390FFE743F60000C4F202000068EF
:1048800000F000710020B0EB516F0CD0FFE7FFF794
:104890006DFA0399401A032804D3FFE703208DF82B
:1048A0001700AEE0E7E70499C869D1F820C04B6A69
:1048B0008A6A40EA0C0040EA8310D2034FF6FF7385
:1048C0009A43A2F580321043C96A40EA016043F678
:1048D0000401C4F2020108606021C4F247210120F2
:1048E0000860FFF743FA0390FFE743F60000C4F2C5
:1048F0000200006800F000710020B0EB516F0CD195
:10490000FFE7FFF733FA0399401A032804D3FFE7C0
:1049100003208DF8170074E0E7E721E06021C4F27E
:10492000472100200860FFF721FA0390FFE743F6D4
:104930000000C4F20200006800F000710020B0EB3B
:10494000516F0CD0FFE7FFF711FA0399401A0328C3
:1049500004D3FFE703208DF8170052E0E7E7FFE7F5
:104960004AE004988069012804D1FFE701208DF80E
:10497000170046E043F60400C4F20200006802900B
:1049800004988069012831D0FFE7029800F4800084
:104990000499C969884229D1FFE7029800F03F00D5
:1049A0000499096A884221D1FFE7029847F6C0714D
:1049B00008400499496AB0EB811F17D1FFE70298BC
:1049C00000F440300499896AC9034FF6FF7291439D
:1049D000A1F58031884209D1FFE7029800F07060AC
:1049E0000499C96AB0EB016F04D0FFE701208DF88C
:1049F000170006E0FFE7FFE7FFE700208DF817004C
:104A0000FFE79DF8170006B080BD000081B0009060
:104A100001B0704781B0009001B0704785B003903D
:104A20000291FFE7039890F83C00012804D1FFE7CA
:104A300002208DF813007EE00399012081F83C00EC
:104A4000FFE7FFE70399022081F83D000398006823
:104A5000406801900398006880680090019820F0F9
:104A60007000019002980168019808430190019834
:104A7000039909684860039800680021C4F20101A5
:104A800088423CD0FFE703980068B0F1804F36D0F1
:104A9000FFE70398006840F20041C4F20001884239
:104AA0002DD0FFE70398006840F60001C4F2000132
:104AB000884224D0FFE70398006840F60041C4F222
:104AC000000188421BD0FFE70398006840F20041D4
:104AD000C4F20101884212D0FFE70398006844F253
:104AE0000001C4F20101884209D0FFE70398006881
:104AF00041F60001C4F2000188420ED1FFE70098A0
:104B000020F08000009002984168009808430090CF
:104B10000098039909688860FFE70399012081F8EC
:104B20003D00FFE70399002081F83C00FFE70020EB
:104B30008DF81300FFE79DF8130005B070470000E3
:104B400080B582B00090009820B9FFE701208DF871
:104B500007003FE0009890F83D0040B9FFE700995A
:104B6000002081F83C00009800F038F8FFE7009939
:104B7000022081F83D00009951F8040B01F060FD1E
:104B80000099012081F84600FFE70099012081F893
:104B90003E00009981F83F00009981F8400000999B
:104BA00081F84100FFE7FFE70099012081F842000A
:104BB000009981F84300009981F84400009981F838
:104BC0004500FFE70099012081F83D0000208DF8A5
:104BD0000700FFE79DF8070002B080BD81B000909C
:104BE00001B0704783B00190019890F83D00012812
:104BF00004D0FFE701208DF80B006AE00199022044
:104C000081F83D0001980168C86840F00100C86063
:104C1000019800680021C4F2010188423CD0FFE7FE
:104C200001980068B0F1804F36D0FFE70198006826
:104C300040F20041C4F2000188422DD0FFE7019804
:104C4000006840F60001C4F20001884224D0FFE76A
:104C50000198006840F60041C4F2000188421BD070
:104C6000FFE70198006840F20041C4F20101884268
:104C700012D0FFE70198006844F20001C4F201017C
:104C8000884209D0FFE70198006841F60001C4F2AC
:104C90000001884212D1FFE701980068806800F0A7
:104CA000070000900098062807D0FFE701980168E8
:104CB000086840F001000860FFE706E0019801681D
:104CC000086840F001000860FFE700208DF80B0045
:104CD000FFE79DF80B0003B07047000081B0009023
:104CE00001B0704780B584B0039003980068C06835
:104CF000029003980068006901909DF80400800705
:104D0000002824D5FFE79DF80800800700281DD55E
:104D1000FFE7039801686FF0020008610399012022
:104D20000877039800688069800720B1FFE703983F
:104D3000FFF7D4FF06E0039800F018F9039800F09D
:104D400033FAFFE7039900200877FFE7FFE79DF8B4
:104D500004004007002825D5FFE79DF8080040071C
:104D600000281ED5FFE7039801686FF00400086172
:104D700003990220087703980068806910F4407F47
:104D800004D0FFE70398FFF7A9FF06E0039800F0BF
:104D9000EDF8039800F008FAFFE703990020087780
:104DA000FFE7FFE79DF804000007002824D5FFE790
:104DB0009DF80800000700281DD5FFE7039801684B
:104DC0006FF00800086103990420087703980068D1
:104DD000C069800720B1FFE70398FFF77FFF06E077
:104DE000039800F0C3F8039800F0DEF9FFE7039999
:104DF00000200877FFE7FFE79DF80400C0060028C1
:104E000025D5FFE79DF80800C00600281ED5FFE75E
:104E1000039801686FF01000086103990820087773
:104E200003980068C06910F4407F04D0FFE703983E
:104E3000FFF754FF06E0039800F098F8039800F09D
:104E4000B3F9FFE7039900200877FFE7FFE79DF834
:104E50000400C00778B1FFE79DF80800C00748B11B
:104E6000FFE7039801686FF001000861039800F004
:104E7000BDFAFFE7FFE79DF804000006002810D503
:104E8000FFE79DF808000006002809D5FFE7039812
:104E900001686FF0800008610398FFF7B7FDFFE736
:104EA000FFE79DF804004006002810D5FFE79DF8B5
:104EB00008004006002809D5FFE7039801686FF055
:104EC00040000861039800F0A1FAFFE7FFE79DF8B2
:104ED00004008006002810D5FFE79DF80800800632
:104EE000002809D5FFE7039801686FF020000861EA
:104EF0000398FFF78FFDFFE7FFE704B080BD0000D8
:104F000080B588B00790002006900590049003902B
:104F100002900798006840F60001C4F20001884240
:104F200022D1FFE7FFE70020019043F63000C4F2F2
:104F30000200016841F008010160006800F008000B
:104F400001900198FFE74FF4804002900220039007
:104F5000002104910591069040F60040C4F2020041
:104F600002A9FEF727FDFFE708B080BD81B00090E1
:104F700001B0704780B586B0049003910292002082
:104F80008DF80700FFE7049890F83C00012804D151
:104F9000FFE702208DF8170089E00499012081F8CD
:104FA0003C00FFE7FFE7029800900C2800F27080B9
:104FB0000099DFE801F0076D6D6D206D6D6D3A6D44
:104FC0006D6D530004980068039901F027FC049864
:104FD0000168886940F00800886104980168886960
:104FE00020F00400886103980269049801688869C8
:104FF0001043886150E004980068039901F084FC34
:1050000004980168886940F4006088610498016828
:10501000886920F4806088610398026904980168B7
:10502000886940EA0220886136E0049800680399A4
:1050300001F0E4FC04980168C86940F00800C86108
:1050400004980168C86920F00400C86103980269E7
:1050500004980168C8691043C8611DE0049800689D
:10506000039901F045FD04980168C86940F40060A7
:10507000C86104980168C86920F48060C861039819
:10508000026904980168C86940EA0220C86103E027
:1050900001208DF80700FFE7FFE70499002081F861
:1050A0003C00FFE79DF807008DF81700FFE79DF82B
:1050B000170006B080BD000080B582B00090009857
:1050C00020B9FFE701208DF807003FE0009890F835
:1050D0003D0040B9FFE70099002081F83C000098AE
:1050E00000F038F8FFE70099022081F83D000099B0
:1050F00051F8040B01F0A4FA0099012081F8460050
:10510000FFE70099012081F83E00009981F83F00F7
:10511000009981F84000009981F84100FFE7FFE71E
:105120000099012081F84200009981F8430000991C
:1051300081F84400009981F84500FFE700990120BB
:1051400081F83D0000208DF80700FFE79DF807007B
:1051500002B080BD80B584B003900398006840F62B
:105160000001C4F2000188421BD1FFE7FFE70020E5
:10517000029043F64000C4F20200016841F00401CD
:105180000160006800F0040002900298FFE71E2012
:10519000019005210022FEF7BDFE0198FEF7B0FE4A
:1051A000FFE704B080BD000081B0009001B07047FF
:1051B00080B58EB00C900B9100208DF82B000B98D1
:1051C00028B9FFE70C9890F83E0008901CE00B9877
:1051D000042805D1FFE70C9890F83F00079010E0F5
:1051E0000B98082805D1FFE70C9890F8400006902E
:1051F00004E00C9890F841000690FFE706980790AD
:10520000FFE707980890FFE70898012804D0FFE718
:1052100001208DF83700E5E00B9828B9FFE70C99DD
:10522000022081F83E001EE00B98042806D1FFE71B
:105230000C99022081F83F00059012E00B98082895
:1052400006D1FFE70C99022081F84000049005E0A8
:105250000C99022081F841000490FFE70498059022
:10526000FFE70598FFE70B9803900C2825D80399D2
:10527000DFE801F0072323230E2323231523232311
:105280001C000C980168C86840F00200C86018E073
:105290000C980168C86840F00400C86011E00C98E0
:1052A0000168C86840F00800C8600AE00C9801680E
:1052B000C86840F01000C86003E001208DF82B00A2
:1052C000FFE79DF82B00002840F08780FFE70C984F
:1052D00000680B990122019201F084FA01980C995F
:1052E00009680022C4F20102914202900CD0FFE74B
:1052F0000C9800684FF60041CBF6FE710844B0FAF6
:1053000080F040090290FFE70298C00738B1FFE73C
:105310000C980168486C40F400404864FFE70C9822
:1053200000680021C4F2010188423CD0FFE70C98DC
:105330000068B0F1804F36D0FFE70C98006840F26B
:105340000041C4F2000188422DD0FFE70C980068AC
:1053500040F60001C4F20001884224D0FFE70C9817
:10536000006840F60041C4F2000188421BD0FFE70C
:105370000C98006840F20041C4F20101884212D04A
:10538000FFE70C98006844F20001C4F20101884272
:1053900009D0FFE70C98006841F60001C4F2000153
:1053A000884212D1FFE70C980068806800F007007F
:1053B00009900998062807D0FFE70C98016808684B
:1053C00040F001000860FFE706E00C9801680868FB
:1053D00040F001000860FFE7FFE79DF82B008DF823
:1053E0003700FFE79DF837000EB080BD80B582B072
:1053F0000190019800680021C4F20101884203D1A4
:10540000FFE7FEF7B9FCFFE702B080BD81B0009076
:1054100001B0704780B586B004900391ADF80A20C2
:10542000049890F84200202848D1FFE7039820B163
:10543000FFE7BDF80A0020B9FFE701208DF817004B
:1054400040E004990120086304990020486304980F
:105450000399BDF80A2001F093FE8DF80900049825
:10546000006B012821D1FFE7FFE70020019004989D
:1054700000680068019004980068406801900198F5
:10548000FFE7FFE7FFE70498006850E8030F40F0EC
:1054900010000090FFE700990498026842E80310AA
:1054A0000028F0D1FFE7FFE703E001208DF80900B5
:1054B000FFE79DF809008DF8170003E002208DF842
:1054C0001700FFE79DF8170006B080BD80B584B0D7
:1054D0000390ADF80A10039802F074F80190019857
:1054E00030B1FFE70198BDF80A1002F067F9FFE755
:1054F00004B080BD80B584B00390039800F03AF802
:105500000007002833D5FFE70398006844F6000140
:10551000C4F20001884210D1FFE7FFE700200290AB
:1055200040F62040C2F2000001680968029100685C
:10553000406802900298FFE7FFE70398006841F295
:105540000001C4F20101884210D1FFE7FFE700200B
:10555000019040F6D830C2F200000168096801915C
:105560000068406801900198FFE7FFE7FFE704B09B
:1055700080BD000081B000900098406C01B0704781
:1055800080B592B011901198006800681090119841
:105590000068C0680F901198006840690E90002064
:1055A0000D900C90109800F00F000D900D9888B998
:1055B000FFE79DF84000800600280AD5FFE79DF828
:1055C0003C008006002804D5FFE7119801F086FC16
:1055D00002E2FFE70D98002800F0C280FFE79DF887
:1055E0003800C00738B9FFE7BDF83C0010F4907FE1
:1055F00000F0B680FFE79DF84000C00758B1FFE714
:105600009DF83D00C00730B1FFE71199486C40F0AC
:1056100001004864FFE79DF84000400700280BD5D3
:10562000FFE79DF83800C00730B1FFE71199486CDB
:1056300040F002004864FFE79DF840008007002822
:105640000BD5FFE79DF83800C00730B1FFE711998F
:10565000486C40F004004864FFE79DF840000007F4
:10566000002811D5FFE79DF83C008006002805D4EE
:10567000FFE79DF83800C00730B1FFE71199486C8B
:1056800040F008004864FFE71198406C002866D09D
:10569000FFE79DF84000800600280AD5FFE79DF847
:1056A0003C008006002804D5FFE7119801F016FCA5
:1056B000FFE7119800684069C0F380100C901198C2
:1056C000406C0007002804D4FFE70C9800283ED067
:1056D000FFE7119801F088FB1198006840694006C7
:1056E00000282FD5FFE7FFE7FFE71198006850E893
:1056F000050F20F040000B90FFE70B99119802680E
:1057000042E805100028F0D1FFE7FFE71198C06BD1
:1057100098B1FFE71198C16B46F69530C0F60000CE
:1057200008651198C06BFDF779FE28B1FFE7119865
:10573000C06B016D8847FFE703E01198FFF7DAFEC1
:10574000FFE703E01198FFF7D5FEFFE706E01198A9
:10575000FFF7D0FE119900204864FFE7FFE73BE127
:105760001198006B012840F01781FFE79DF8400079
:10577000C006002840F11081FFE79DF83C00C006FC
:10578000002840F10981FFE7FFE700200A90119807
:10579000006800680A901198006840680A900A98AA
:1057A000FFE71198006840694006002840F19A80A0
:1057B000FFE71198C06B00684068ADF82600BDF89F
:1057C0002600002875D0FFE7BDF826001199898DC5
:1057D00088426EDAFFE7BDF826001199C885119856
:1057E000C06BC069B0F5807F58D0FFE7FFE7FFE7E7
:1057F0001198006850E8030F20F480700890FFE7CC
:1058000008991198026842E803100028F0D1FFE7D8
:10581000FFE7FFE7FFE71198006850E8050F20F069
:1058200001000790FFE707991198026842E8051008
:105830000028F0D1FFE7FFE7FFE7FFE711980068D6
:1058400050E8050F20F040000690FFE706991198F8
:10585000026842E805100028F0D1FFE7FFE7119940
:10586000202081F84200119900200863FFE7FFE73C
:105870001198006850E8030F20F010000590FFE732
:1058800005991198026842E803100028F0D1FFE75B
:10589000FFE71198C06BFDF74BFDFFE71199022060
:1058A00048631198818DC28D891A89B2FFF70EFE67
:1058B00017E0BDF826001199898D884210D1FFE7C5
:1058C0001198C06BC069B0F5807F08D1FFE71199CE
:1058D000022048631198818DFFF7F8FDFFE7FFE78D
:1058E000FFE779E01199888DC98D401AADF8120053
:1058F0001198C08D00284ED0FFE7BDF81200002897
:1059000049D0FFE7FFE7FFE71198006850E8030F71
:1059100020F490700390FFE703991198026842E821
:1059200003100028F0D1FFE7FFE7FFE7FFE711983A
:10593000006850E8050F20F001000290FFE702998F
:105940001198026842E805100028F0D1FFE7FFE750
:105950001199202081F84200119900200863FFE787
:10596000FFE71198006850E8030F20F01000019045
:10597000FFE701991198026842E803100028F0D16E
:10598000FFE7FFE71199022048631198BDF8121054
:10599000FFF79CFDFFE71FE09DF840000006002890
:1059A0000AD5FFE79DF83C000006002804D5FFE774
:1059B000119801F07DFC0FE09DF8400040060028A2
:1059C0000AD5FFE79DF83C004006002804D5FFE714
:1059D000119801F053FAFFE712B080BD80B582B094
:1059E0000090009820B9FFE701208DF8070040E003
:1059F0000098806908B1FFE700E0FFE7009890F8A1
:105A0000410040B9FFE70099002081F8400000986C
:105A100000F034F8FFE70099242081F84100009855
:105A20000168C86820F40050C860009801F00AFBC3
:105A300000980168086920F49040086100980168A6
:105A4000486920F02A00486100980168C86840F45D
:105A50000050C860009900204864009A202182F814
:105A60004110009A82F84210009948638DF80700AF
:105A7000FFE79DF8070002B080BD000080B59CB034
:105A80001B9000201A9019901890179016901B9850
:105A9000006841F20001C4F20101884240F0BB807D
:105AA000FFE7FFE70020159043F64400C4F2020030
:105AB000016841F010010160006800F010001590CD
:105AC0001598FFE7FFE70020149043F63000C4F27A
:105AD0000200016841F002010160006800F002006C
